:020000040800F2
:10000000F0D00120895C0008B1080008B30800089E
:10001000B7080008BB080008BF080008000000007F
:10002000000000000000000000000000C3080008FD
:10003000C508000800000000F7B701088187000824
:10004000A35C0008A35C0008A35C0008A35C000894
:10005000A35C0008A35C0008A35C0008A35C000884
:10006000A35C0008A35C0008A35C0008A35C000874
:10007000A35C0008A35C0008A35C0008A35C000864
:10008000A35C0008A35C0008A35C0008A35C000854
:10009000A35C0008A35C0008A35C0008A35C000844
:1000A000A35C0008A35C0008A35C0008A35C000834
:1000B000A35C0008A35C0008F99B0108A35C00088E
:1000C000A35C0008A35C0008A35C0008A35C000814
:1000D000A35C0008FF8B0008938A0008A35C00085B
:1000E000A35C0008A35C0008A35C0008A35C0008F4
:1000F000A35C0008A35C0008A35C0008A35C0008E4
:10010000A35C0008853E0008A35C0008A35C00080F
:10011000A35C0008A35C0008A35C0008A35C0008C3
:10012000A35C0008A35C0008A35C0008A35C0008B3
:10013000A35C0008A35C0008A35C0008A35C0008A3
:10014000A35C0008A35C0008A35C0008A35C000893
:10015000A35C0008A35C0008A35C00086389000896
:10016000A35C0008A35C0008A35C0008A35C000873
:10017000A35C0008A35C0008A35C0008A35C000863
:10018000A35C0008A35C000800F002F800F07AF815
:100190000AA090E8000C82448344AAF10107DA45E2
:1001A00001D100F06FF8AFF2090EBAE80F0013F0BA
:1001B000010F18BFFB1A43F001031847DC59040074
:1001C000FC59040010F8013B0A4413F0030408BF73
:1001D00010F8014B1D1108BF10F8015B641E05D01B
:1001E00010F8016B641E01F8016BF9D1002D15D0D8
:1001F00010F8014B03F00C030C2BA1EB04040ABF15
:1002000010F8013BA4EB8314A4EB032405F10103D4
:1002100014F8016B5B1E01F8016BF9D5914238BFF0
:1002200010F8013BD1D3704700230024002500269D
:10023000103A28BF78C1FBD8520728BF30C148BF49
:100240000B60704764291AF0578375291AF054839C
:1002500078291AF08D8363291AF0E98773291AF037
:10026000EE87002070471FB528F047FC1BF0A4FA6A
:1002700004000020002127F0A1FF401C60601FBD8A
:1002800010B510BD1BF05CFA1146FFF7ECFF00F053
:10029000CDF91BF083FA03B4FFF7F2FF03BC08F0BB
:1002A00001FB000030BF72B6704762B6704780F342
:1002B000088870470EB517E04FF4FA6008F0C5FAE9
:1002C0004FF4FA71FEA005F0B7F84FF4FA6008F0A9
:1002D000BCFA02A8082141F288330A22CDE90010B5
:1002E0000021084616F0EDF9E6E70EB51FE0F7A08D
:1002F0001AF092FA40F6B83008F0A7FA04F0EFFBD3
:10030000F9480188F9A01AF087FA4FF47A7008F0DA
:100310009CFAFBA01AF080FA02A808214FF47A7325
:100320000022CDE900101146104616F0CAF9DEE7AA
:100330000EB510E004F0D2FD4FF47A7008F085FAA3
:1003400002A8082140F2DC530022CDE9001011463A
:10035000104616F0B6F9EDE70EB50CE004F0CAFA57
:1003600002A8082140F2DC530022CDE9001011461A
:10037000104616F0A6F9F1E70EB51CE0E648006855
:1003800008B9012000E00020E3490860E348D0F804
:10039000980208B9012000E00020DF490831086018
:1003A00002A8082140F2DC530022CDE900101146DA
:1003B000104616F086F9E1E70EB50BE01EF02CF9B9
:1003C00002A8082105230022CDE90010114610469D
:1003D00016F077F9F2E70EB518E017F006FFD048EF
:1003E0000078012801D119F0B9F8CE480078012829
:1003F00001D117F0FAFE02A8082140F2DC530022D6
:10040000CDE900101146104616F05BF9E5E730B56E
:100410008BB00446002500BF0DF074FE0AA813F04F
:10042000DEFD0AAA012108460FF067FE012108033C
:1004300006F0C2FA042021F075FF1DF0ABF800BFF2
:1004400000BF00BF0DF096FF054600BF00BFB648D5
:100450000078401CB449087000BF00BF28460DF06A
:100460008DFF00BF00BF00BF0AA803210022059234
:10047000CDE90621089010464FF40061CC22AB4B29
:10048000CDE90132CDE9031004200023AFF2B90217
:10049000A7A10090AA4814F079F90AA80321002224
:1004A0000592CDE90621089010464FF4806166223E
:1004B000A44BCDE90132CDE9031004200023AFF2B3
:1004C0000712A1A10090A34814F060F90AA8032123
:1004D00000220592CDE90621089010464FF4807164
:1004E00019229D4BCDE90132CDE9031004200023F0
:1004F000AFF27B1299A100909B4814F047F90AA82B
:10050000032100220592CDE90621089010464FF400
:1005100080616622954BCDE90132CDE903100420BC
:100520000023AFF2CB1292A10090944814F02EF960
:100530000AA8032100220592CDE906210890104661
:100540004FF4806166228E4BCDE90132CDE9031074
:1005500004200023AFF227228AA100908C4814F0D7
:1005600015F90AA8032100220592CDE90621089079
:1005700010464FF480616622864BCDE90132CDE909
:10058000031004200023AFF29D2283A10090854830
:1005900014F0FCF80AA8032100220592CDE90621F7
:1005A000089010464FF4806166227F4BCDE90132FE
:1005B000CDE9031004200023AFF207327BA10090A5
:1005C0007D4814F0E3F80AA97C4815F054FC00BFFC
:1005D00000BF00BF0DF0CEFE054600BF00BF524871
:1005E0000078401E5049087008460078A0B9744849
:1005F0000088002809DD00BF00BF28460DF0BEFEC0
:1006000000BF00BF10F062F90DE000BF00BF284638
:100610000DF0B4FE00BF06E000BF00BF28460DF09D
:10062000ADFE00BF00BF00BF0BB030BD8CB00024DA
:1006300064A103C9CDE90901A82008F0ADF84FF481
:10064000A06005F041FB4FF4E13008F039F94FF4B8
:10065000E13008F0C7F94FF4165008F065FA00F0E1
:1006600075FD00F039FA03F0BFFC04F003FA002036
:1006700008F025FB022008F022FB08F023FC534978
:100680000122086852A10AF063FF03F0B5FF514947
:100690000868804705F0CAF904F0B0F809A804F02A
:1006A00000FC09A804F073FB4FF4E13004F088FC6F
:1006B0000BA80FF0F9FA00BF00BF00BF8CE00000EC
:1006C00041542B43574C4150000000000D0A204379
:1006D0004F325F646174615F746573745F737461DA
:1006E0007274200D0A000000860000200D0A2043CD
:1006F0004F323D202025642070706D200D0A0000CF
:100700000D0A20434F325F646174615F74657374D6
:100710005F656E64200D0A00908240420080404276
:10072000C4050020C5050020C00100208035002040
:10073000456D77696E7569207461736B0000000008
:10074000BC340020F81F0020546F7563682074616A
:10075000736B0000341F0020BC3000204C656430F7
:10076000207461736B000000F82F002044560020B5
:100770005348543330207461736B0000805500205F
:10078000CC77002050525443207461736B000000FA
:100790000877002008670020434F32207461736B94
:1007A0000000000044660020908800205749464918
:1007B000207461736B000000CC870020700E002055
:1007C000840100201607050B0C060000FCAA01207E
:1007D000303A00002C0000200DF0CCFD044600BF94
:1007E00000BF2C480078401C2A49087000BF00BF99
:1007F00020460DF0C3FD00BF00BF00BF0BA80321C2
:1008000000220592CDE90621089010464FF4806140
:100810006622214BCDE90132CDE9031003200023EC
:10082000AFF215421DA100901F4813F0AFFF00BFAB
:1008300000BF00BF0DF09EFD044600BF00BF15487D
:100840000078401E1349087008460078A0B9174880
:100850000088002809DD00BF00BF20460DF08EFD96
:1008600000BF00BF10F032F80DE000BF00BF20460F
:100870000DF084FD00BF06E000BF00BF20460DF074
:100880007DFD00BF00BF00BF0BA80FF0D6FC00BF6E
:10089000FEE70000C0010020340F00207374617275
:1008A00074207461736B0000700E002084010020BE
:1008B000704700BFFEE700BFFEE700BFFEE700BFD6
:1008C000FEE77047704700000CB5002001900090D3
:1008D0007648006840F480307449086000BF73486F
:1008E000006800F4003000900198401C01900098CE
:1008F00018B90198B0F5A04FF1D16C48006800F428
:10090000003010B10120009001E00020009000981C
:10091000012846D165484030006840F08050634966
:10092000403108606248006840F440406049086017
:100930005E48083000685D49083108600846006874
:1009400040F4004008600846006840F4A050086089
:100950005848091F0860081F006840F08070091F90
:10096000086000BF5148006800F000700028F9D00E
:1009700040F20570504908604C480830006820F08B
:1009800003004A49083108600846006840F0020048
:10099000086000BF45480830006800F00C000828D7
:1009A000F8D10CBD10B54548006840F470004349CB
:1009B00008603E48006840F001003C4908600020A3
:1009C0003A4908310860394800683D4908403749CC
:1009D00008603C48091D0860081F006820F480205A
:1009E000091F0860002031490C310860FFF76CFFD7
:1009F0004FF0006031498039086010BD70B50020AB
:100A00000022022300240221284D08352D6805F01C
:100A10000C0020B1042806D0082834D107E02A4D64
:100A20002A4E356033E02A4D284E35602FE01F4DA9
:100A30002D1D2D68C5F380541C4D2D1D2D6805F00E
:100A40003F0154B1224DB5FBF1F5184E361D366805
:100A5000C6F3881605FB06F209E01B4DB5FBF1F560
:100A6000124E361D3668C6F3881605FB06F20F4D8A
:100A70002D1D2D68C5F301456D1C6B00B2FBF3F510
:100A8000124E356003E0104D104E356000BF00BFC0
:100A9000064D08352D68C5F303150E4E705D0B4DE0
:100AA0002D68C540094E356070BD00000038024019
:100AB0000070004008544007003C024088ED00E010
:100AC000FFFFF6FE103000240024F4000000002098
:100AD00000127A00040000201CB50121022005F05C
:100AE0006BFFF820009001208DF8040000208DF8A5
:100AF00006008DF8070003208DF8050069460448BC
:100B000005F0BCFCF821024805F034FD1CBD0000D6
:100B100000040240FE49088070474FF0C24108803F
:100B2000704708B54FF0C24000880090BDF8000043
:100B300008BDF74A1080921C1180704710B504461A
:100B40002046FFF7E7FF0F2007F055FEFFF7E9FF0C
:100B500010BDF0480089EE49088070474FF0C2414F
:100B60000880704730B5014601F01F04C1F34513FA
:100B7000CA0AE50205EB43151544A8B230BD00BF13
:100B8000011EA0F10102D0B2FAD1704700B50246B1
:100B90000B46E048808849F28641884205D0DD480E
:100BA000808847F29671884220D1DA494889FFF758
:100BB000B1FF1012FFF7B1FFD0B2FFF7AEFF101276
:100BC000FFF7ABFFD0B2FFF7A8FFD2498889FFF744
:100BD000A1FF1812FFF7A1FFD8B2FFF79EFF18126E
:100BE000FFF79BFFD8B2FFF798FF1FE0C948808846
:100BF00049F24131884205D0C648808845F210311B
:100C0000884213D1C3494889FFF784FF1012FFF7C8
:100C100084FFD0B2FFF781FFBE498889FFF77AFFD2
:100C20001812FFF77AFFD8B2FFF777FF00BD2DE962
:100C3000F04304460D4600260027B046B54800881C
:100C4000A04203DDB3484088A84202DC0020BDE892
:100C5000F08329462046FFF799FFAE48808849F285
:100C6000413188421ED12E20FFF754FFFFF759FF74
:100C700006460220FFF783FFFFF753FF06460220D8
:100C8000FFF77DFFFFF74DFF8046F7B24FF6FF708D
:100C900000EA0727F012C002B91240EA411040EA08
:100CA000E820D4E79B48808849F28641884205D0F5
:100CB0009848808847F29671884210D12E20FFF71D
:100CC00029FFFFF72EFF81460220FFF758FFFFF7AD
:100CD00028FF81460220FFF752FF4846B7E7002071
:100CE000B5E700B58B48808849F28641884211D02B
:100CF0008848808847F2967188420BD08548808862
:100D000049F24131884205D08248808847F2967185
:100D1000884202D12920FFF7FDFE00BD00B57D48C5
:100D2000808849F2864188420BD07A48808847F211
:100D30009671884205D07748808849F241318842CF
:100D400002D12820FFF7E6FE00BD30B5044600239F
:100D5000002570488079012818D1082C15D2DFE8C9
:100D600004F00406080A0C0E101206240DE00724F5
:100D70000BE0042409E0052407E0012405E0002439
:100D800003E0032401E0022400BF00BF6148808823
:100D900049F2864188420BD05E48808847F29671BE
:100DA000884205D05B48808849F2413188425CD155
:100DB000082C1CD2DFE804F00406090C0F121518E9
:100DC00000BF14E043F0800311E043F040030EE065
:100DD00043F0C0030BE043F0200308E043F060035E
:100DE00005E043F0A00302E043F0E00300BF00BFD2
:100DF000362543F008034748808846F604018842B8
:100E000001D143F0020319462846FFF792FE4149FB
:100E10004889FFF77FFE0020FFF77FFE0020FFF7E5
:100E20007CFE3C490988491EC1F30F20FFF775FE7F
:100E300038490978491EC8B2FFF76FFE35498889DD
:100E4000FFF768FE0020FFF768FE0020FFF765FE51
:100E500030494988491EC1F30F20FFF75EFE2D4936
:100E60008978491EC8B2FFF758FE30BD30B5044638
:100E70000D4629462046FFF789FEFFF76AFE264801
:100E800000884FF0C241088030BD10B503460C46C3
:100E90002048808849F28641884205D01D488088D4
:100EA00047F2967188421FD11A494889FFF732FEEE
:100EB0001812FFF732FED8B2FFF72FFE1812FFF715
:100EC0002CFED8B2FFF729FE12498889FFF722FECF
:100ED0002012FFF722FEE0B2FFF71FFE2012FFF7FD
:100EE0001CFEE0B2FFF719FE0A48808849F2413142
:100EF000884205D00748808845F2103188421AD1CF
:100F000004494889FFF706FE1812FFF706FE05E0C0
:100F1000FEFFFF609098002014000020D8B2FFF779
:100F2000FCFDFE498889FFF7F5FD2012FFF7F5FD6E
:100F3000E0B2FFF7F2FDF9480089F9490880881C02
:100F4000028010BD10B50446A4BB0020F34988718F
:100F5000F02008804FF4A07048800846808849F24D
:100F6000864188420BD0ED48808847F296718842CE
:100F700005D0EA48808849F2413188424FD12C207F
:100F8000E64908812A2048812B20888108468088EC
:100F900049F28641884205D0E048808847F2967140
:100FA00088423CD14FF4A070DC4908804FF4F070C7
:100FB000488034E0FFE70120D84988714FF4A070E1
:100FC0000880F02048800846808849F2864188429F
:100FD0000BD0D248808847F29671884205D0CF481E
:100FE000808849F24131884206D12C20CB490881C2
:100FF0002A2048812B208881C848808849F2864170
:10100000884205D0C548808847F29671884206D14B
:101010004FF4F070C14908804FF4A070488001205F
:10102000FFF793FE10BDF0B504460D46A018401E14
:1010300086B2E818401E87B2B848808849F28641D7
:1010400088420BD0B548808847F29671884205D017
:10105000B248808849F2413188421FD1AF4948895E
:10106000FFF758FD2012FFF758FDE0B2FFF755FDDE
:101070003012FFF752FDF0B2FFF74FFDA749888904
:10108000FFF748FD2812FFF748FDE8B2FFF745FDDE
:101090003812FFF742FDF8B2FFF73FFDF0BD70B523
:1010A000054600269D480488408844439B480188A3
:1010B0009CA019F0B1FB994841889DA019F0ACFBA8
:1010C00021469FA019F0A8FB9448808849F28641E8
:1010D000884205D09148808847F29671884226D18F
:1010E0008E494889FFF716FD0020FFF716FD002006
:1010F000FFF713FD894909880812FFF70EFD87499C
:101100000878FFF70AFD85498889FFF703FD00206D
:10111000FFF703FD0020FFF700FD80494988081212
:10112000FFF7FBFC7D498878FFF7F7FC03E000211F
:101130000846FFF72BFDFFF70CFD002603E04FF0FC
:10114000C2400580761CA642F9D370BD00B5A1B09F
:10115000002020900121182005F02EFC01210846D6
:1011600005F062FC40201E9001208DF87C000020DC
:101170008DF87E0002208DF87D0001208DF87F0023
:101180001EA9744805F07AF94CF2B3701E90022043
:101190008DF87C0000208DF87E0003208DF87D0006
:1011A00001208DF87F001EA96B4805F067F94FF606
:1011B00084701E9002208DF87C0000208DF87E0047
:1011C00003208DF87D0001208DF87F001EA9614865
:1011D00005F054F90C2208215F4805F0DAF90C22D9
:1011E00009215D4805F0D5F90C220A215A4805F07D
:1011F000D0F90C220E21584805F0CBF90C220F2112
:10120000554805F0C6F90C220021534805F0C1F9F4
:101210000C220121504805F0BCF90C2204214E4853
:1012200005F0B7F90C2205214B4805F0B2F90C2264
:101230000721494805F0ADF90C220221454805F087
:10124000A8F90C220721434805F0A3F90C22082134
:10125000404805F09EF90C2209213E4805F099F915
:101260000C220A213B4805F094F90C220B21394845
:1012700005F08FF90C221146364805F08AF90C2248
:101280000D21344805F085F90C220E21314805F076
:1012900080F90C220F212F4805F07BF902200890DD
:1012A0000A20099002200A9000200B900C900D90CB
:1012B0000E90022001900A2002900220039000204C
:1012C00004900590069007900F90109011901020B8
:1012D00012900020139015901490169017904FF4D0
:1012E00080501890002019904FF480401A900020F0
:1012F0001B9008A81C9001A81D900FA804F06FFD7A
:101300000121002004F0F6FD47F296700349888021
:101310000846808847F2967188421FE09098002026
:10132000FEFFFF602077696474683A25780D0A0033
:10133000206865696768743A25780D0A0000000026
:1013400020746F74616C706F696E743A25640D0A55
:101350000000000000100240000C02407ED14FF45B
:10136000FA7007F072FA1120FFF7D4FB4FF4FA700D
:1013700007F06BFAF020FFF7CDFBC320FFF7CDFBA2
:10138000F020FFF7C7FB9620FFF7C4FB3620FFF7DE
:10139000C1FB0020FFF7C1FB3A20FFF7BBFB052094
:1013A000FFF7BBFBE820FFF7B5FB4020FFF7B5FBDD
:1013B0008220FFF7B2FB0720FFF7AFFB1820FFF7F3
:1013C000ACFB2720FFF7A9FB0A20FFF7A6FBB620FE
:1013D000FFF7A3FB3320FFF7A0FBC520FFF79AFB25
:1013E0002720FFF79AFBC220FFF794FBA720FFF707
:1013F00094FBE020FFF78EFBF020FFF78EFB01202F
:10140000FFF78BFB0620FFF788FB0F20FFF785FB1C
:101410001220FFF782FB1D20FFF77FFB3620FFF72E
:101420007CFB5420FFF779FB4420FFF776FB0C2070
:10143000FFF773FB1820FFF770FB1620FFF76DFB1B
:101440001320FFF76AFB1520FFF767FBE120FFF78A
:1014500061FBF020FFF761FB012000E038E0FFF7BF
:101460005CFB0520FFF759FB0A20FFF756FB0B201A
:10147000FFF753FB0720FFF750FB3220FFF74DFB30
:101480004420FFF74AFB4420FFF747FB0C20FFF7FF
:1014900044FB1820FFF741FB1720FFF73EFB13200A
:1014A000FFF73BFB1620FFF738FBF020FFF732FB7E
:1014B0003C20FFF732FBF020FFF72CFB6920FFF701
:1014C0002CFB4FF47A7007F0C0F92920FFF722FBBC
:1014D0000020FFF737FD4FF4FC60FFF7E0FD21B07F
:1014E00000BD2DE9F04F06460F4690469946DDF8BF
:1014F00024A04FF0000BF748808849F286418842CB
:1015000005D0F448808847F29671884211D13D4653
:101510000CE0344606E0524629462046FFF7B5FC6B
:10152000601C84B24445F6DB681C85B24D45F0DB97
:101530001AE0A8EB0600401C1FFA80FB3C4611E0B5
:1015400021463046FFF722FBFFF703FB002505E0AD
:101550004FF0C240A0F800A0681C85B25D45F7DBE3
:10156000601C84B24C45EBDDBDE8F08F2DE9F84FEF
:1015700007460D4690469946DDF828B0A8EB0700CF
:10158000401C1FFA80FAA9EB0500401C80B20090B5
:10159000002415E0281981B23846FFF7F7FAFFF763
:1015A000D8FA002608E004FB0A603BF810004FF070
:1015B000C2410880701C86B25645F4DB601C84B2C0
:1015C00000988442E6DBBDE8F88F2DE9FF4F84B038
:1015D00081468A460020039002900698A0EB0905F8
:1015E0000798A0EB0A06CDF80490CDF800A0002DD6
:1015F00001DD012705E00DB9002702E04FF0FF37BC
:101600006D42002E02DD4FF0010806E016B94FF0E2
:10161000000802E04FF0FF387642B54201DD2C466B
:1016200000E034464FF0000B21E0009A91B2019A9D
:1016300090B2FFF71BFC03982844039002983044B3
:1016400002900398A04205DD0398001B03900198C7
:10165000384401900298A04205DD0298001B0290D8
:101660000098404400900BF101001FFA80FB601CC1
:101670008345DADD08B0BDE8F08FF0B504460D46CD
:1016800016461F462B46324629462046FFF79DFF49
:101690003B46224629462046FFF797FF3B46324607
:1016A00039462046FFF791FF3B46324629463046F1
:1016B000FFF78BFFF0BD2DE9F04306460F4690463D
:1016C000002445460320A0EB48093CE07A1B91B278
:1016D000321990B2FFF7CAFB3A1B91B2721990B25D
:1016E000FFF7C4FB3A1991B2721990B2FFF7BEFB33
:1016F0007A1991B2321990B2FFF7B8FB7A1991B208
:10170000321B90B2FFF7B2FB3A1991B2721B90B242
:10171000FFF7ACFB7A1B91B2321B90B2FFF7A6FB2E
:101720003A1B91B2721B90B2FFF7A0FB641CB9F197
:10173000000F03DAA000801D814404E0601B8000DC
:101740000A3081446D1EAC42C0DDBDE8F0832DE956
:10175000F84F80460E4617461C46B3462046E31710
:1017600004EB5373DB1021464FEAE47C04EB5C7C12
:101770004FEAEC0CA4EBCC0CBCF1000F02D04FF004
:10178000010C01E04FF0000C6344224604EBD27CD4
:101790004FEA6C0C03FB0CF3DBB20093A7F12000C3
:1017A000C7B2002556E00C2C07D107EB47004A4989
:1017B00001EB800010F8059013E0102C05D147488C
:1017C00000EB071010F805900BE0182C07D107EB81
:1017D000C700434901EB800010F8059001E0BDE827
:1017E000F88F4FF0000A2FE009F0800030B13D483B
:1017F000028831464046FFF748FB07E00A9828B9BF
:101800003948028831464046FFF73FFB4FEA4960BE
:101810004FEA1069701C86B22E484088B04200DC46
:10182000DDE7A6EB0B00A0420AD15E4608F10100FD
:101830001FFA80F827480088404500DCCFE706E023
:101840000AF1010000F0FF0ABAF1080FCCDB00BF7B
:10185000681CC5B200988542A5DB00BFBFE710B584
:101860000246012000E050430B1EA1F10104E1B249
:10187000F9D110BD2DE9FF4F81B0074691461E46B4
:101880000E9D4FF0000A002445E0301B401EC1B2FF
:101890000A20FFF7E4FFB9FBF0F00A21B0FBF1F2F8
:1018A00001FB1208BAF1000F22D1701EA0421FDD09
:1018B000B8F1000F1AD10020AB4605EBDB714910DF
:1018C00001FB0471009088B22B4620220299FFF799
:1018D0003EFF1EE090980020048B0208788F0208DB
:1018E0006895020814000020160000204FF0010A3D
:1018F0000020AB4605EBDB71491001FB0471009041
:1019000088B208F13001CAB22B460299FFF71FFFD7
:1019100000BF601CC4B2B442B7DB05B0BDE8F08FB5
:101920002DE9FF4F82B0064692461F46DDE90F487B
:101930000020019000254DE0781B401EC1B20A2016
:10194000FFF78DFFBAFBF0F00A21B0FBF1F201FBCB
:101950001209019850BB781EA84227DDB9F1000F8B
:1019600022D108F0800078B108F00100A34604EB12
:10197000DB71491001FB0561009088B223463022DB
:101980000399FFF7E4FE0EE008F00100A34604EB24
:10199000DB71491001FB0561009088B223462022CB
:1019A0000399FFF7D4FE13E00120019008F0010035
:1019B000A34604EBDB71491001FB0561009088B27E
:1019C00009F13001CAB223460399FFF7C0FE00BFF8
:1019D000681CC5B2BD42AFDB06B0BDE8F08F2DE993
:1019E000F84704460D4690469946DDE9096704F03C
:1019F000FF0A08EB04001FFA80F809EB05001FFA44
:101A000080F916E0444502DB5446A81985B24D45DD
:101A100000DB14E0002000903A7833462946204647
:101A2000FFF795FE304606EBD07104EB61018CB2F6
:101A30007F1C38787E2802DC38782028E2DA00BF64
:101A4000BDE8F88710B5012006F0D5FE10BD1CB525
:101A50000121022004F0B0FF4FF44060009001200B
:101A60008DF8040000208DF8060002208DF8050096
:101A700001208DF807006946D14804F0FFFC4FF4BF
:101A80000050009000208DF804008DF8060003201F
:101A90008DF8050001208DF807006946C84804F05C
:101AA000EDFC4FF48061C64804F064FD4FF4006122
:101AB000C34804F05FFD1CBD10B5C148006820F4A8
:101AC0004000BF4908600846006840F48000086094
:101AD0000120BC490860BC49C1F8A802FFF7B2FF69
:101AE0000020B8490860FFF7ADFF0020B649C1F8F3
:101AF000A80210BD10B5B248006820F44000B049FB
:101B000008600846006840F4800008600020AD4985
:101B1000091F0860AC49C1F8AC02FFF793FF012030
:101B2000A849091F0860FFF78DFF0120A649C1F8E9
:101B3000AC0210BD10B50024A148006820F440009C
:101B40009F49086008460068086001209D490860B8
:101B500006F051FE09E0601C84B244F62060844225
:101B600003DDFFF7C7FF012010BD964880380068ED
:101B70000028F0D101209349091F0860042006F0D5
:101B80003AFE00209049C1F8A80200BFECE710B56A
:101B900000208C49091F08608948006820F4400033
:101BA000874908600846006840F48000086000200B
:101BB0008549C1F8AC02FFF745FF022006F01BFE85
:101BC00001208049091F0860FFF73CFF00207E4983
:101BD000C1F8A80210BD10B500207A49091F08609D
:101BE0007748006820F4400075490860084600689E
:101BF00040F48000086001207349C1F8AC02FFF78F
:101C000021FF01206F49091F0860FFF71BFF00201B
:101C10006D49C1F8A80210BD70B504466848006857
:101C200020F44000664908600846006840F48000DF
:101C3000086000206349091F0860002512E0E009E0
:101C4000604908606006040E01205F49C1F8A802DF
:101C5000FFF7F8FE00205B49091F0860FFF7F2FE5E
:101C6000681CC5B2082DEADB70BD70B505460024BE
:101C700000205449091F08605148006820F44000C2
:101C80004F490860084600680860012006F0B3FD6F
:101C9000002616E000204B49091F0860FFF7D2FE1E
:101CA00001204949C1F8A802022006F0A4FD6006FF
:101CB000040E44488038006808B1601CC4B2701C2F
:101CC000C6B2082EE6DB15B9FFF785FF01E0FFF786
:101CD0005EFF204670BD2DE9F04106460F46904656
:101CE0000024FFF7E9FE3420FFF796FFFFF722FFFD
:101CF0001CB136A018F090FD02E03CA018F08CFD5D
:101D00003012FFF789FFFFF715FF1CB12FA018F065
:101D100083FD02E03AA018F07FFDF0B2FFF77CFFF0
:101D2000FFF708FF1CB129A018F076FD02E038A0EB
:101D300018F072FD002509E0785DFFF76DFFFFF7F1
:101D4000F9FE044604B103E0681CC5B24545F3DB67
:101D500000BFFFF7CFFE2046BDE8F0812DE9F0413E
:101D600005460F461646FFF7A7FE3420FFF754FF3F
:101D7000FFF7E0FE2812FFF74FFFFFF7DBFEE8B2A8
:101D8000FFF74AFFFFF7D6FEFFF796FE3520FFF775
:101D900043FFFFF7CFFE00240BE0711EA14201D0EC
:101DA000012100E000210846FFF75FFF3855601C65
:101DB000C4B2B442F1DBFFF79DFEBDE8F081000044
:101DC00000040240AC824042008040423120435433
:101DD0005F4949435F576169745F41636B20657276
:101DE000726F72202E200D0D0A0000000D0A0D0AE0
:101DF00020312061636B206F6B2E200D0D0A0000D7
:101E000020322061636B206F6B2E200D0D0A0000C5
:101E100020332061636B206F6B2E200D0D0A0000B4
:101E200010B500240020D8490860902000F0BCF9CB
:101E3000002000F0B9F9002000F0B6F9002000F011
:101E4000B3F9FF2000F0B0F944EA0024FF2000F0CD
:101E5000ABF904430120CD49C1F8B802204610BDBA
:101E60001CB50121022004F0A7FD0121402004F04F
:101E7000A3FD4FF48040009001208DF80400002065
:101E80008DF8060003208DF8050001208DF807006D
:101E90006946BF4804F0F2FA802000906946BD48C8
:101EA00004F0ECFA8021BB4804F064FB0120B64941
:101EB000086000F092F9002000F0ECF9FFF7B0FFA5
:101EC000B54908801CBD10B500240020AE4908604B
:101ED000052000F069F9FF2000F066F904460120B2
:101EE000AA49C1F8B802204610BD10B5044600202A
:101EF000A5490860012000F057F9204600F054F988
:101F00000120A249C1F8B80210BD10B500209E49B9
:101F10000860062000F048F901209C49C1F8B80289
:101F200010BD10B5002098490860042000F03CF96D
:101F300001209649C1F8B80210BD2DE9F0410646CE
:101F40000C461746002090490860032000F02CF949
:101F5000C4F3074000F028F9C4F3072000F024F987
:101F6000E0B200F021F9002505E0FF2000F01CF9A7
:101F70007055681C85B2BD42F7DB012082490860BC
:101F8000BDE8F08110B500BFFFF79DFF00F0010034
:101F90000028F9D110BD2DE9F04106460C46174640
:101FA000FFF7B3FF002078490860022000F0FCF83A
:101FB000C4F3074000F0F8F8C4F3072000F0F4F889
:101FC000E0B200F0F1F8002504E0705D00F0ECF8FC
:101FD000681C85B2BD42F8DB01206B490860FFF741
:101FE000D1FFBDE8F0812DE9F04107460E461446C9
:101FF000F0B2C0F58075AC4200DC254612E02A46FE
:1020000031463846FFF7C7FFAC4200D10BE02F4402
:102010002E44601B84B2B4F5807F02DD4FF48075DE
:1020200000E02546EBE700BFBDE8F08110B50446AF
:1020300021465AA018F0F0FB2403FFF766FFFFF7D4
:10204000A1FF002050490860202000F0ADF8C4F343
:10205000074000F0A9F8C4F3072000F0A5F8E0B2AB
:1020600000F0A2F801204949C1F8B802FFF78AFF41
:1020700010BD2DE9F05F81460F461646DFF824B10A
:102080004FEA1738C7F30B0ACAF58054A64200DCA2
:10209000344644E04FEA08314FF480525846FFF787
:1020A0004CFF002508E00AEB05001BF80000FF28A4
:1020B00000D003E0681C85B2A542F4DB00BFA54256
:1020C00016DA4046FFF7B2FF002507E019F80500D1
:1020D00005EB0A010BF80100681C85B2A542F5DB8F
:1020E0004FEA08314FF480525846FFF77CFF04E076
:1020F000224639464846FFF776FFA64200D10FE058
:1021000008F101084FF0000AA1442744301B86B2B1
:10211000B6F5805F02DD4FF4805400E03446B9E745
:1021200000BFBDE8F09F10B5FFF7EFFEFFF72AFFF5
:10213000002015490860C72000F036F80120134937
:10214000C1F8B802FFF71EFF10BD10B500200E4900
:102150000860B92000F028F801200C49C1F8B80245
:10216000032006F048FB10BD10B5002006490860AA
:10217000AB2000F019F801200449C1F8B80203208F
:1021800006F039FB10BD0000B8824042008040429A
:1021900000040240001802401800002066653A253D
:1021A000780D0A009E98002010B5044600BF022159
:1021B000414806F0A3FA0028F9D021463E4806F02F
:1021C00054FA00BF01213C4806F098FA0028F9D0E3
:1021D000394806F047FAC0B210BD00B587B00121FA
:1021E000084604F0E9FB0121080304F03FFC382015
:1021F000059002208DF8180000208DF81A000320A9
:102200008DF8190001208DF81B0005A92B4804F05A
:1022100035F905220321294804F0BBF905220421E0
:10222000264804F0B6F905221146244804F0B1F915
:102230000121080304F06FFC00214FF4805004F0EA
:102240006AFC0020ADF800004FF48270ADF8020087
:102250000020ADF804000220ADF806000120ADF822
:1022600008004002ADF80A003820ADF80C0000204C
:10227000ADF80E000720ADF8100069460E4806F0D4
:1022800079F801210C4806F06FF9FF20FFF78CFF69
:1022900007B000BD10B50446074800884FF6C77167
:1022A000084005490880084600882043088001212D
:1022B000014806F059F910BD003001400004024009
:1022C0000020FE490860091D0860091D0860091DFD
:1022D0000860FA4924310860091D0860091D08607A
:1022E000F748F649383108600020091D086070473A
:1022F00001460020012900D011B9F24B197000E00D
:10230000262070470146ED4A121D106820F0FF009C
:10231000084310607047014600BFE8483430006849
:1023200000F045000028F8D040F2FF50E34A383270
:102330001060E2481430006808221040C0B27047B4
:102340002DE9FC4107460D460026002400200090A0
:1023500001900820DC490860102048604020886017
:102360000020C8604FF480600861084605F0FDFE5B
:102370001020FFF7D0FF044614B12046BDE8FC81D1
:10238000D24800880004D0490860372048604020C7
:1023900088600020C8604FF480600861084605F03E
:1023A000E4FE3720FFF7B7FF04460CB12046E5E70F
:1023B0004FF0FF30C6490860082048603020886030
:1023C0000220C8600020086101204861084605F02D
:1023D000F8FE0020BC490860332048604020886037
:1023E0000020C8604FF480600861084605F0BDFE1B
:1023F0003320FFF790FF04460CB12046BEE70CE007
:102400004FF4001005F044FF38B105F000FF4DF81F
:102410002600761C012E00D907E0A8483430006859
:1024200040F22A6108400028EAD000BF082005F0E9
:102430002FFF28B1082005F036FF042420469DE731
:10244000022005F025FF28B1022005F02CFF022410
:10245000204693E7202005F01BFF28B1202005F03F
:1024600022FF0624204689E74FF4007005F010FF94
:1024700030B14FF4007005F016FF072420467DE7C9
:1024800040F2FF5005F00FFF00980006009901F49C
:102490007F4140EA0120009901F47F0140EA1120C8
:1024A000009940EA1160686001980006019901F402
:1024B0007F4140EA0120019901F47F0140EA1120A7
:1024C000019940EA11602860204657E77CB505462F
:1024D000002400200090019005F068FE00F00070DC
:1024E00010B10E2420467CBD7849098888B269461F
:1024F000FFF726FF04460CB12046F4E7012D36D144
:10250000019800F4802000282ED070480088000434
:102510006D49086037204860402088600020C8600E
:10252000A8020861084605F020FE3720FFF7F3FEF9
:1025300004460CB12046D6E7022063490860062015
:102540004860402088600020C8604FF480600861C7
:10255000084605F00AFE0620FFF7DDFE04460CB132
:102560002046C0E72046BEE725242046BBE7019869
:1025700000F4803078B35548008800045249086060
:1025800037204860402088600020C8604FF4806099
:102590000861084605F0E9FD3720FFF7BCFE044658
:1025A0000CB120469FE7002047490860062048609C
:1025B000402088600020C8604FF4806008610846B1
:1025C00005F0D3FD0620FFF7A6FE04460CB1204619
:1025D00089E7204687E7FFE72524204683E770B593
:1025E000044600253B480078032802D127252846C9
:1025F00070BD3848007838B136480078012803D0DB
:102600003448007802282CD1B4F5805F02D1272508
:102610002846EDE7B4F5006F13D10120FFF756FF10
:102620000546F5B900202C490875086048608860A7
:102630004FF40060C86000200861084605F06BFD9B
:102640000FE00020FFF742FF054655B90020224960
:102650000875086048608860C8600861084605F031
:102660005AFD2846C4E770B50446002516480460A4
:10267000072015494860402088600020C8604FF45A
:1026800080600861084605F070FD0720FFF743FEF3
:102690000546284670BDF0B50146002000220D4BCE
:1026A0001B7881F85630094B1B88A1F854300B4B2E
:1026B0001B681A0E93090B7012E00000002C0140F9
:1026C000FF07C00024000020B8A800202000002040
:1026D000CCA800201C000020A0A80020E4A8002016
:1026E000C2F383034B7002F003038B70FD4B1B6836
:1026F000C3F30742CA70FB4B1B88C3F307220A715E
:10270000F84B1A784A715B681A0E1301CB80F54BAF
:102710005B68C3F30742CB8843EA1213CB8002F015
:102720000F030B72EF4B9B88C3F30722D3094B7245
:10273000C2F380138B72C2F34013CB72C2F3001347
:102740000B7300234B73E84B1B783BB1E64B1B78B4
:10275000012B03D0E44B1B78032B4FD193071B0DA8
:102760000B61E04B1A790B6943EA82030B61DD4B85
:102770009B681A0E0B6943EA92130B61C2F3C20302
:102780000B7502F007034B75D64B9B68C3F30742EA
:1027900053098B75C2F38203CB7593075B0F0B76DE
:1027A000D04B1B89C3F307220B7E43EAD2130B766F
:1027B0000B695B1C0024C1E912340B7ED1E9124580
:1027C0009B1C012606FA03F3DE17A4FB037C05FB22
:1027D00003C304FB0633C1E912730C7A0123A3403F
:1027E0000B650024D1E912560B6DA5FB037C06FB9B
:1027F00003C305FB0433C1E912732CE0BA4B1B7809
:10280000022B28D1B74B1A7993069B0A0B61B54B63
:102810009B681A0E0B6943EA02230B61B14B9B685C
:10282000C3F307420B6913430B61AE4B1B89C3F320
:1028300007220B695B1C4FF40074A3FB0435660090
:102840000027A3FB064C05FB06C503FB0753C1E9A4
:10285000124373100B65C2F3801301F8193F9306FE
:102860005B0E4B709F4B1A7A4B7843EAD2134B7036
:1028700002F07F038B709B4BDB681A0ED309CB7081
:10288000C2F341130B71C2F382034B7193071B0F09
:102890008B71944BDB68C3F307428B7943EA921345
:1028A0008B71C2F34013CB7100230B7202F0010352
:1028B0004B728C4B9B89C3F30722D3098B72C2F3F3
:1028C0008013CB72C2F340130B73C2F300134B732C
:1028D000C2F381038B7302F00303CB73814B1A7B2A
:1028E00053080B7401234B74804B1B681A0ECA7477
:1028F00019397E4B1B68C3F307421402CC857B4B0E
:102900001B88C3F30722CB8D1343CB85774B1A78F3
:1029100014060C635B681A0E0B6B43EA02440C63EB
:10292000724B5B68C3F307420B6B43EA02240C63F0
:102930006E4B9B88C3F307220B6B13430B636B4BEC
:102940001A7934235A54694B9B681A0E35235A540A
:10295000664B9B68C3F3074214068C63634B1B8969
:10296000C3F307228B6B43EA02448C635F4B1A7AF2
:102970008B6B43EA02248C635C4BDB681A0E8B6B17
:1029800013438B63594BDB68C3F307423C235B5C07
:1029900043EA12143C235C5413071C0DCC87534BA1
:1029A0009B89C3F30722CB8F1343CB874F4B1A7BF3
:1029B000540840235C54012441235C54F0BD70B59D
:1029C00000254B48046801E04948046804F04500CC
:1029D0000028F9D004F0040028B10325042005F0F4
:1029E00062FC284670BD04F0010028B101250120D9
:1029F00005F059FC2846F5E740F2FF5005F053FC7E
:102A00002846EFE72DE9F04106460F464FF0000853
:102A10003748056801E03648056805F0450000289C
:102A2000F9D005F0040038B14FF00308042005F098
:102A30003AFC4046BDE8F08105F0010030B14FF0AE
:102A40000108012005F02FFC4046F3E705F0A9FB43
:102A5000B04203D04FF010084046EBE740F2FF5081
:102A600005F021FC002005F0A1FB044604F46040C1
:102A700018B9200C38804046DCE704F4005008B157
:102A80001320D7E704F4804008B11020D2E704F403
:102A9000004008B10F20CDE74046CBE738B5002411
:102AA0000120009005F05BFB10B92524204638BDBD
:102AB0000D480078042833D000200E490860022019
:102AC0004860C02088600020C8604FF480600861C2
:102AD000084605F04AFBFFF772FF044664B1204642
:102AE000E5E70000E4A800201C000020F4A8002076
:102AF000342C0140B8A80020002005F057FBFE4907
:102B00000860042005F052FBFB494860082005F0EE
:102B10004DFBF94988600C2005F048FBF649C86078
:102B2000F648007858B1F5480078012807D0F348F6
:102B30000078062803D0F1480078022816D100203A
:102B4000EF49086003204860402088600020C8608A
:102B50004FF480600861084605F007FB69460320D2
:102B6000FFF750FF04460CB12046A0E7E348007889
:102B700004282ED0BDF80000E2490860BDF800002E
:102B80000004DF49086009204860C02088600020F8
:102B9000C8604FF480600861084605F0E6FAFFF768
:102BA0000EFF04460CB1204681E7002005F0FEFA36
:102BB000D5490860042005F0F9FAD3494860082097
:102BC00005F0F4FAD04988600C2005F0EFFACE4900
:102BD000C860002420466AE770B50025CB48046829
:102BE00001E0CA48046804F045000028F9D004F068
:102BF000040028B10325042005F055FB284670BDCC
:102C000040F2FF5005F04FFB2846F8E770B500266C
:102C10004FF48035BD48046802E06D1EBB4804686F
:102C200004F0450008B9002DF7D115B104F00400F7
:102C300028B10326042005F036FB304670BD04F0B1
:102C4000400028B10026402005F02DFB3046F5E776
:102C50003046F3E770B500254FF4803400E0641E81
:102C600024B1802005F014FB0028F8D014B9032506
:102C7000284670BD40F2FF5005F015FB2846F8E7E6
:102C80002DE9F0410024002600250027A0467620EB
:102C90009F4908750020086048608860C860086126
:102CA000084605F038FA032005F055FA012005F032
:102CB0004FFA00209249086048608860C8604FF46D
:102CC00080600861084605F050FAFFF7C3FF04462C
:102CD00014B12046BDE8F0814FF4D57088490860F2
:102CE00008204860402088600020C8604FF4806061
:102CF0000861084605F039FAFFF788FF04462CB949
:102D000001207E4908704FF0804812E000207C4985
:102D1000086037204860402088600020C8604FF479
:102D200080600861084605F020FA3720FFF7F3FAC3
:102D300004460020724908603720486040208860BF
:102D40000020C8604FF480600861084605F00DFA65
:102D50003720FFF7E0FA0446002C4AD136E0002085
:102D60006749086037204860402088600020C860BC
:102D70004FF480600861084605F0F7F93720FFF747
:102D8000CAFA04460CB12046A4E7624848EA0000AB
:102D90005B49086029204860402088600020C860A6
:102DA0004FF480600861084605F0DFF9FFF714FF73
:102DB00004460CB120468DE7002005F0F7F90646E1
:102DC000012080EAD67080F001076D1C1FB94FF614
:102DD000FF708542C3D34FF6FF70854202D31B2498
:102DE000204677E706F08040061E02D002204349C5
:102DF000087020466EE73EB500240121464803F0E6
:102E0000DBFD0121C80203F031FE0121C80203F0FD
:102E100082FE4FF47C50019002208DF808008DF85E
:102E2000090001208DF80B0001A93C4803F026FBA6
:102E30000420019001A93A4803F020FB0C2208214C
:102E4000364803F0A6FB0C220921344803F0A1FB0D
:102E50000C220A21314803F09CFB0C220B212F4845
:102E600003F097FB0C2211462C4803F092FB0C2236
:102E700002212B4803F08DFB00214FF4006003F08A
:102E80004AFEFFF71DFA05F03BF931208DF80000EE
:102E900000208DF801008DF8020001208DF803005C
:102EA000684602F016FFFFF7EBFE044614B9FFF781
:102EB000F5FD04461CB91B48FFF7EDFB044634B989
:102EC0001849B1F854100804FFF7CDFB044624B9A3
:102ED0004FF40060FFF783FB04461CB107480078FD
:102EE000032806D10020FFF70DFA0020FFF700FAB3
:102EF000044620463EBD0000F4A800201C0000202F
:102F0000B8A8002020000020E4A80020342C0140B4
:102F1000A0A80020000010800C0040000008024023
:102F2000000C024008A9002010B50024002005F084
:102F300012F9204610BD70B590B004460E461546F5
:102F400000BFFE4805F031F80028FAD1FB4804F034
:102F500003FF4FF000600190F9480290039404953C
:102F60000020059006904FF4806007908000089044
:102F70008000099000200A904FF440300B9004200C
:102F80000C9003200D904FF400000E9080100F90D5
:102F900001A9EA4804F082FF2021E84804F0CEFFAE
:102FA0000121E64804F0B4FF10B070BD01460020D6
:102FB00002E04910421CD0B20129FAD170472DE934
:102FC000F84F8146174698460A9C4FF0000AD346B0
:102FD0004D464FF0FF36B9F1000F02D12620BDE873
:102FE000F88F0020D64954390860D6480078022866
:102FF00005D10402780A40EAC8574FEA6828002041
:10300000D14988604860401E086001204861002066
:10301000C8600861084605F0D4F8C9486C380068F3
:1030200000F0007008B10E20D9E7002C21DDB4F5C6
:10303000006F1EDC601E2040D8B92046FFF7B6FFA7
:103040000090C24804601020C04948604020886059
:103050000020C8604FF480600861084605F085F8DC
:103060001020FFF758F98246BAF1000F03D05046FE
:10307000B5E72620B3E700980001B3498860084609
:1030800044604FF0FF300860012048610220C860B2
:1030900000200861084605F094F8AC48076011204C
:1030A000AA494860402088600020C8604FF48060D2
:1030B0000861084605F059F81120FFF72CF98246FF
:1030C000BAF1000F01D0504689E7A14800780028E6
:1030D00078D1FDF7E8F818E099484C38006800F41A
:1030E000004070B14FF0000B05E09548006845F8CE
:1030F0002B000BF1010BBBF1080FF6D32035954ED9
:1031000003E00EB904206AE7761E8D484C3800684B
:1031100040F22A6108400028DED089484C38006817
:1031200000F0080048B186484838006840F00800C0
:10313000834948390860042051E781484C380068C9
:1031400000F0020048B17E484838006840F00200B4
:103150007B4948390860022041E779484C380068CB
:1031600000F0200048B176484838006840F0200060
:10317000734948390860062031E771484C380068C7
:1031800000F4007048B16E484838006840F40070A0
:103190006B4948390860072021E703E06848006868
:1031A00028602D1D66484C38006800F40010002887
:1031B000F4D1FDF77AF840F2FF50614948390860D0
:1031C0003AE0FFE762480078012835D100206249E3
:1031D00008706249087062490870594844380068AC
:1031E00040F22A310843564944390860544854385B
:1031F000006840F008005249543908600022214616
:103200004846FFF798FE00E0761E4C4858380068A4
:1032100000F0006038B95248007820B94E48007874
:1032200008B9002EF0D10EB90420D8E64A4800783B
:1032300010B1494890F800A05046D0E62DE9FF5F54
:1032400017469846DDE90E464FF00009CA464FF092
:10325000FF35444900980860002039495439086016
:1032600038480078022805D10402780A40EAC85795
:103270004FEA68280020344988604860401E086092
:10328000012048610020C8600861084604F099FFE9
:103290002B486C38006800F0007018B10E2004B0A4
:1032A000BDE8F09F002C21DDB4F5006F1EDC601E30
:1032B0002040D8B92046FFF779FE834623480460B2
:1032C000102022494860402088600020C8604FF4E8
:1032D00080600861084604F048FF1020FFF71BF8E3
:1032E0008146B9F1000F03D04846D8E72620D6E73B
:1032F000012E7DD906FB04F0B0F1007F01D326201A
:10330000CDE74FEA0B101049886006FB04F04860D7
:103310004FF0FF300860012048610220C8600020A3
:103320000861084604F04DFF08480760122007496D
:103330004860402088600020C86015E05864024062
:10334000802C01401C000020CCA80020B8A8002040
:1033500024000020FFFF0700260000202500002099
:1033600027000020280000204FF4806008610846F4
:1033700004F0FBFE1220FEF7CEFF8146B9F1000FEC
:1033800001D048468BE7FE48007800287ED1FCF744
:103390008AFF1EE0FB48006800F40040A8B14FF02F
:1033A000000A08E0F7484C300068F749096841F81E
:1033B0002A000AF1010ABAF1080FF3D3F2480068B3
:1033C0002030F1490860F14D03E00DB9042066E7B3
:1033D0006D1EEC48006840F22A3108400028D9D020
:1033E000E848006800F0080058B1E648001D00E019
:1033F000B6E0006840F00800E249091D08600420BA
:103400004DE7E048006800F0020048B1DD48001DCB
:10341000006840F00200DB49091D086002203EE719
:10342000D848006800F0200048B1D648001D006868
:1034300040F02000D349091D086006202FE7D1483D
:10344000006800F4007048B1CE48001D006840F4E8
:103450000070CC49091D0860072020E70AE0C94830
:103460004C300068C84909680860C7480068001DFA
:10347000C5490860C348006800F400100028EED178
:10348000C048006800F4807020B300E02AE0C04823
:10349000007838B1BE480078012803D0BC480078D5
:1034A000022817D10020BB4908600C20486040204A
:1034B00088600020C8604FF480600861084604F00E
:1034C00054FE0C20FEF727FF8146B9F1000F01D012
:1034D0004846E4E6FCF7E9FE40F2FF50A949091D21
:1034E00008603DE0A6480078012839D10020AA49AB
:1034F00008700120A94908700020A9490870A14856
:103500000830006840F22A3108439E4908310860BB
:103510009C480838006840F008009A49083908605B
:1035200006FB04F100220098FFF705FD00E06D1E88
:103530009C48006800F0006008B9002DF7D10DB973
:103540000420ACE600BF9648007818B9924800788D
:103550000028F8D09048007810B18F4890F800907B
:1035600048469CE67CB5044600250020019000906A
:103570008D4800880004874908600D20486040207D
:1035800088600020C8604FF480600861084604F03D
:10359000ECFD7C480068009002E07A4800680090EA
:1035A000009800F045000028F7D0009800F00400D3
:1035B00028B10325042004F076FE28467CBD00983F
:1035C00000F0010028B10125012004F06CFE28461E
:1035D000F4E704F0E6FD009000980D2802D01025D5
:1035E0002846EBE740F2FF5004F05DFE002004F0B7
:1035F000DDFD01900198C0F3432020706B490198D4
:10360000084008B92846D9E7019800F0004008B101
:103610001C20D3E7019800F0804008B10920CDE7D5
:10362000019800F0005008B10A20C7E7019800F0A7
:10363000805008B10B20C1E7019800F0006008B18C
:103640000C20BBE7019800F0806008B10D20B5E7C1
:10365000019800F0807008B10E20AFE7019800F4E7
:10366000000008B10F20A9E7019800F4800008B11C
:103670001020A3E7019800F4001008B111209DE785
:10368000019800F4801008B1122097E7019800F427
:10369000002008B1132091E7019800F4802008B1C0
:1036A00014208BE7019800F4003008B1152085E75D
:1036B000019800F4803008B116207FE7019800F4EB
:1036C000004008B1172079E7019800F4804008B164
:1036D000182073E7019800F4005008B119206DE735
:1036E000019800F0080008B11A2067E7284665E74E
:1036F0002DE9FF5F86B017469846149D00260020EE
:103700000590049000248146039082460290019522
:10371000DDF818B0DDF818B0BBF1000F03D126209A
:103720000AB0BDE8F09F002016490839086020491A
:1037300088604860401E0860012048610020C86021
:103740000861084604F03DFD0E482038006800F08E
:10375000007008B10E20E3E70D480078022805D17B
:103760000502780A40EAC8574FEA6828002D3BDD79
:10377000B5F5006F38DC681E2840A0BB284619E06C
:1037800024000020342C014028000020FFFF070007
:103790001C000020B8A800202600002025000020E2
:1037A00027000020006402402000002008E0FFFD08
:1037B000CCA80020FFF7FAFB0590FE48056010201A
:1037C000FC494860402088600020C8604FF4806059
:1037D0000861084604F0C9FC1020FEF79CFD06466F
:1037E00026B130469CE7FFE7262099E7F24800889B
:1037F0000004F04908600D204860402088600020E7
:10380000C8604FF480600861084604F0AEFC0D20EB
:10381000FEF781FD06460EB1304681E7E7480068B5
:1038200003904FF0FF341BE0641EE348008800045F
:10383000E04908600D204860402088600020C86092
:103840004FF480600861084604F08FFC0D20FEF7FD
:1038500062FD06460EB1304662E7D8480068039024
:10386000039800F4807008B9002CDDD10CB9292030
:1038700056E7D04807601820CE494860402088604D
:103880000020C8604FF480600861084604F06DFCB9
:103890001820FEF740FD06460EB1304640E70020F6
:1038A000C749087005980001C64988600846456008
:1038B0004FF0FF300860012048610020C8600861B7
:1038C000084604F07EFC4FF0FF34BF480078002823
:1038D0007ED1FCF7E8FC45E0B8482030006800F4F1
:1038E0008040D0B30198A0EB0900202822D2019893
:1038F000A0EB090000F0030020B90198A0EB09003B
:10390000800804E00198A0EB09008008401C0290A8
:103910004FF0000A0AE0A9496C31DBF800000860AA
:103920000AF1010A0BF1040B09F10409029882451E
:10393000F1D310E04FF0000A06E05BF82A009F493F
:103940006C3108600AF1010ABAF1080FF5D30BF1E6
:10395000200B09F120099D4C04E0FFE70CB904207D
:10396000DEE6641E95482030006840F21A61084087
:103970000028B1D0082004F08BFC20B1082004F00E
:1039800092FC0420CCE6022004F082FC20B102204C
:1039900004F089FC0220C3E6102004F079FC20B179
:1039A000102004F080FC0520BAE64FF4007004F00B
:1039B0006FFC30B14FF4007004F075FC0720AFE6E7
:1039C00006E0FCF772FC40F2FF5004F06CFC3AE0B9
:1039D0007D480078012836D100207D49087078495B
:1039E00008707C490870012140F21A3004F03FFC55
:1039F000402229460698FFF79EFA012004F033FC86
:103A000000E0641E7448006800F0006008B9002CF3
:103A1000F7D11CB9FFF7EFF9042081E64FF0FF342E
:103A200000E0641E6B48007820B96948007808B946
:103A3000002CF6D10CB9042072E66548007810B16C
:103A4000634800786CE640F2FF5004F02CFC04A8B8
:103A5000FFF788FD064603E004A8FFF783FD06464E
:103A60003EB99DF810000728F6D09DF810000628F2
:103A7000F2D0304654E62DE9FF5F84B0DDE912470D
:103A80000026002003900290002580468146019088
:103A900007FB04FBDDF810A0DDF810A0BAF1000F61
:103AA00003D1262008B0BDE8F09F0020434918311B
:103AB0000860444988604860401E086001204861F1
:103AC0000020C8600861084604F07BFB3B480068A2
:103AD00000F0007008B10E20E4E7404800780228AA
:103AE00008D10402DDE90601400A40EAC15049124A
:103AF000CDE90601002C1FDDB4F5006F1CDC601E53
:103B00002040C8B92046FFF751FA039029480460C5
:103B1000102028494860402088600020C8604FF489
:103B200080600861084604F020FB1020FEF7F3FBDC
:103B300006461EB13046B5E72620B3E7012F7DD9F2
:103B400007FB04F0B0F1007F01D32620AAE7234849
:103B5000007838B121480078012803D01F48007848
:103B6000022844D114480088000412490860372014
:103B70004860402088600020C8604FF48060086181
:103B8000084604F0F2FA3720FEF7C5FB06460EB1F0
:103B9000304687E7074807601720064948604020FD
:103BA00088600020C8604FF480600861084604F017
:103BB000DCFA15E0B8A8002020000020142C0140F9
:103BC00025000020CCA8002024000020FFFF0700D3
:103BD0002600002027000020006402401C00002076
:103BE0001720FEF798FB06460EB130465AE7F34918
:103BF0000698086019204860402088600020C8604E
:103C00004FF480600861084604F0AFFA1920FEF70F
:103C100082FB06460EB1304644E703980001E849AE
:103C2000886007FB04F048604FF0FF300860012017
:103C300048610020C8600861084600E0E5E004F043
:103C4000C0FAE0480078002871D1451EFCF72BFB34
:103C500040E0DD48006800F48040B0B3ABEB080002
:103C600020281FD2ABEB080000F0030018B9ABEB23
:103C70000800800803E0ABEB08008008401C0190BE
:103C80004FF000090AE0D0494C31DAF80000086032
:103C900009F101090AF1040A08F1040801988145B3
:103CA000F1D310E04FF0000906E05AF82900C649A8
:103CB0004C31086009F10109B9F1080FF5D30AF197
:103CC000200A08F12008C14D04E0FFE70DB90420E7
:103CD000E8E66D1EBC48006840F21A310840002832
:103CE000B7D0082004F0D4FA20B1082004F0DBFAA1
:103CF0000420D7E6022004F0CBFA20B1022004F021
:103D0000D2FA0220CEE6102004F0C2FA20B1102030
:103D100004F0C9FA0520C5E64FF4007004F0B8FAC3
:103D200030B14FF4007004F0BEFA0720BAE62CE080
:103D30004FF4807004F0ACFA00B3A548007838B1B5
:103D4000A3480078012803D0A1480078022815D1A3
:103D500000209A4908600C204860402088600020BC
:103D6000C8604FF480600861084604F0FEF90C203A
:103D7000FEF7D1FA06460EB1304693E6FCF795FA07
:103D800040F2FF5004F08FFA3FE08E48007801289F
:103D90003BD100208F49087001208F490870002016
:103DA0008E490870012140F21A3004F060FA07FBD6
:103DB00004F140220498FFF7BEF8012004F053FA02
:103DC0004FF0FF3500E06D1E8548006800F0006090
:103DD00008B9002DF7D11DB9FFF70DF8042061E6F1
:103DE0004FF0FF3500E06D1E7C48007820B979481F
:103DF000007808B9002DF6D10DB9042052E67548B7
:103E0000007810B1734800784CE640F2FF5004F09F
:103E10004AFA02A8FFF7A6FB064603E002A8FFF74E
:103E2000A1FB06463EB99DF808000728F6D09DF88C
:103E300008000628F2D0304634E610B5664800780F
:103E400001280DD1002060492C39086040F24C4017
:103E5000091D08600C20FEF75EFA5E49087002E05A
:103E600000205C4908704FF4807004F02BFA0021A8
:103E70004FF4807004F0FBF9012058490870554850
:103E8000007810BD10B5FFF7D8FF10BD2DE9FE4F2B
:103E900083460E46914600200290002534464C4849
:103EA000007818B1680240EAD45564020BF00300B0
:103EB000F0B14FF0000A18E04FF4007000904FEAA4
:103EC0004A20071945EBE0733A464648FFF777F872
:103ED00002904FF400724349584616F0FAFF0BF572
:103EE000007B0AF1010000F0FF0ACA45E4DB16E09E
:103EF000B9F1010F09D14FF4007022462B46009012
:103F00005846FFF75CF8029009E04FF40070224633
:103F10002B46CDE900095846FFF790F90290029828
:103F2000BDE8FE8F2DE9FE4F0646894692460020E9
:103F3000029000254C462648007818B1680240EAF5
:103F4000D455640206F00300F0B14FF0000B18E006
:103F50004FF400723146234816F0BBFF4FF4007057
:103F600000904FEA4B20071945EBE0733A461D4895
:103F7000FFF7BEFB029006F500760BF1010000F0A2
:103F8000FF0BD345E4DB16E0BAF1010F09D14FF482
:103F9000007022462B4600903046FFF7A9FB0290A6
:103FA00009E04FF4007022462B46CDE9000A304666
:103FB000FFF761FD02900298BDE8FE8FB8A80020CF
:103FC000CCA8002024000020342C0140FFFF070073
:103FD0001C000020260000202500002027000020D3
:103FE0000064024060A900201CB50121022002F0FB
:103FF000E3FC4FF48040009001208DF80400002085
:104000008DF8060003208DF8050002208DF80700CA
:104010006946094802F032FA4FF48041064802F03E
:10402000A9FA4FF4FA7004F010FC4FF480410248F2
:1040300002F0A2FA1CBD0000000402401CB54FF6BD
:10404000FF70FDF72CF81F20FE490880FEA010210C
:10405000CDE90010FD490988183988B21023C8221B
:104060000021FDF7BCFC4FF47840F64908801CBDE8
:10407000F8B505460E4614461F4604B9F8BD281982
:10408000401E82B23346314628460097FDF729FA92
:1040900000BFF3E72DE9F05F0746884616469A46CB
:1040A00040F2C32070434FF47A71B0FBF1F000F19D
:1040B000010906FB06F000EB560B344671040A0CAE
:1040C000B91B88B253464146FFF7D2FF012535E0C0
:1040D00005FB05F004FB040058451AD94C4517D9D7
:1040E0006B1E5B041A0C08EB040399B27B1B5B1C70
:1040F00098B25346FFF7BCFF6B1E5B041A0CA8EB8B
:10410000040399B27B1B5B1C98B25346FFF7B0FFC8
:10411000641E63041A0C08EB050399B23B1B98B2AA
:104120005346FFF7A5FF63041A0CA8EB050399B2E9
:104130003B1B98B25346FFF79BFF6D1C4D45C7D9FB
:10414000BDE8F09F02468A4202DD501A80B27047F5
:10415000881A80B2FBE72DE9FF4F85B0804689467B
:10416000129F002003900290B84507DB0798B842E1
:1041700004DBB94502DB0898B84202DA09B0BDE8B1
:10418000F08F0798A0EB08040898A0EB0905CDF87C
:104190000480CDF80090002C02DD4FF0010A06E00B
:1041A00014B94FF0000A02E04FF0FF3A6442002DCC
:1041B00002DD4FF0010B06E015B94FF0000B02E0F5
:1041C0004FF0FF3B6D42AC4201DD264600E02E463B
:1041D0000020049023E0009A91B2019A90B23A46EE
:1041E000139BFFF757FF039820440390029828443D
:1041F00002900398B04205DD0398801B039001985C
:10420000504401900298B04205DD0298801B029054
:104210000098584400900498401C80B20490711C8F
:1042200004988842D7DD00BFA8E788B000240025A5
:1042300068E087494868804700245BE0844808308C
:1042400030F8140081490988884251DA80481230D8
:1042500030F814007D494988884249DA03A830F8CB
:1042600024004FF6FF7188420DD17948083030F8AC
:10427000140003A921F824007548123030F8140006
:1042800001EB84014880734830F814000221704E1D
:104290001236CDE9001036F814300A3E36F81420F4
:1042A00003AE06EB8406718803AE36F82400FFF7F0
:1042B00052FF6748083030F8140003A921F82400A1
:1042C0006348123030F8140001EB840148806048E4
:1042D000083030F814105D4800881838814207DD36
:1042E0005B48123030F81400142801DAFFF7A6FEFC
:1042F000601CC4B2052CA1DB052004F0A6FA681CE2
:10430000C5B200BF95E72DE9F04106460D460027EE
:10431000FDF7D2FB3520FDF77FFCFDF70BFC0024F9
:104320000BE0691EA14201D0012100E000210846F6
:10433000FDF79BFC3055601CC4B2AC42F1DBFDF7CD
:10434000D9FB3846BDE8F0812DE9F04106460F461D
:104350004FF0FF34FDF7B0FB3420FDF75DFCFDF7B7
:10436000E9FB0446002509E0705DFDF755FCFDF70B
:10437000E1FB044604B103E0681CC5B2BD42F3DBB7
:1043800000BFFDF7B7FB0CB14FF0FF342046BDE88E
:10439000F08170B504460D464FF0FF3602212046ED
:1043A000FFF7D2FF064629462046FFF7ACFF064638
:1043B000304670BD38B50446D1208DF80000042089
:1043C0008DF8010002216846FFF7BEFF0546002D6B
:1043D00002DAA0B204F039FA38BD38B5D0208DF831
:1043E000000000208DF80100AB208DF802000321B1
:1043F0006846FFF7A9FFC4B2002C02DA1420FFF7C9
:10440000D9FF38BD2DE9F04F87B00027B84600200E
:1044100006900590002504900024814603900290A8
:104420000190062000904FF0000B4FF0000A00268C
:10443000D020094908700020487007210648FFF77E
:10444000A8FF0BE014000020525354009098002065
:104450002C000020C4A2020860AB0020C0B205906E
:10446000E2480078AB2805D1FFF7B7FF002007B07E
:10447000BDE8F08FDD48407900F00F05012D10D127
:10448000D020DA494871072088710221D748401DA1
:10449000FFF77FFFD5488079D449497940EA012B5D
:1044A0001AE0012D18DDD020D0494871072088710D
:1044B000681E00EB8000C11CCC48401DFFF769FF5F
:1044C00005EB8500801CC949095C05EB8500401C93
:1044D000C64A105C41EA002BFFF77FFF4FF000094E
:1044E00007E0C24810F80900824409F1010000F019
:1044F000FF0905EB85004845F3DCD34500D00025D6
:10450000002D51DD00244CE00CB9002600E004260B
:1045100004EB84003044B549085C0109B4480155F6
:1045200004EB84003044B149085C00F00F01B0484E
:10453000401D0155005D062804D10721AC48401DEF
:10454000015503E00621AA48401D015504EB8400F3
:10455000401C3044A549085C010104EB8400C01CE8
:104560003044A24A105C41EA101704EB8400801C1E
:1045700030441146095C04EB8400C01C3044105CDC
:1045800061F31F108046201D30441146085C0690E0
:104590009748143820F814700A3020F81480601CF2
:1045A000C4B2AC42B0DB1EE001259048007800099F
:1045B0008F491C390877062081F821008B48407804
:1045C00000018A49C97840EA111788488178C07883
:1045D00061F31F10804685480079069084481C3896
:1045E0000781A0F812802DB1002401E0601CC4B244
:1045F000AC42FBDB28463AE710B5FDF728FAAFF2EC
:10460000FB107B491C394860012010BDFFB50546F1
:10461000099C04B9FFBD0A2C00DD0A2402268DF88E
:104620000060002047E0165C8DF801601E5C8DF88C
:10463000026015F810608DF8036035F81060360AD6
:104640008DF8046011F810608DF8056031F8106085
:10465000360A8DF8066010B98DF80D4002E000268C
:104660008DF80D60461CF0B2A0421ADA165C8DF887
:1046700007601E5C8DF8086015F810608DF8096001
:1046800035F81060360A8DF80A6011F810608DF860
:104690000B6031F81060360A8DF80C60461CF0B2E1
:1046A00009E0072604E000270DF80670771CFEB22B
:1046B0000D2EF8DB00BFA042B5DB00BFAAE72DE955
:1046C000F14181B00024002700250026A04649487A
:1046D0000078401C47490870084600780A2190FB82
:1046E000F1F201FB120018B1424800780A284EDAB4
:1046F000012201A94FF45040FDF730FB9DF8040062
:1047000000F01F00002842D09DF8040000F01F00B8
:1047100040F0C00036491C3981F82600002426E00C
:1047200033481C3890F826000121A1400840E0B130
:10473000314931F8140004226946FDF70FFB2C487B
:104740001C3890F8270000F0010038B128481438D0
:1047500020F814500A3020F8146006E02448143879
:1047600020F814500A3020F81460601CC4B2052CE4
:10477000D6DB01271E481C38008928B91C481C3884
:10478000408A08B90020019000201A4908709DF85D
:10479000040000F01F00F0B915481C3890F82600FE
:1047A00000F0800050B112481C3890F8260020F02C
:1047B00080000F491C3981F826000CE04FF6FF708D
:1047C0000B491C3908814882084690F8260000F001
:1047D000E00081F8260007480078F02802DD0A2072
:1047E000044908703846BDE8FC81000060AB002039
:1047F0004800002074000020CEA2020810B5FA2064
:1048000004F023F801F031F9882001F0DAF901F021
:104810006DF9212001F0D5F901F068F9302001F09F
:10482000D0F901F063F901F042F9962004F00DF897
:1048300010BD10B5044601F018F9882001F0C1F947
:1048400001F054F9E02001F0BCF901F04FF900202B
:1048500001F0B7F901F04AF901F007F9892001F0F8
:10486000B0F901F043F9012001F0D8F920800120CE
:1048700001F0D4F96080012001F0D0F9A08001207E
:1048800001F0CCF9E080012001F0C8F9208100207E
:1048900001F0C4F9608101F00AF910BD30B502469B
:1048A0000B46FF20002113E0555C684008240BE014
:1048B00000F0800525B1312585EA4005E8B201E028
:1048C0004506280E651EECB2002CF1DC4D1CE9B249
:1048D0009942E9DB30BDF0B505460E461446314637
:1048E0002846FFF7DBFFC7B2A74201D00120F0BD89
:1048F0000020FCE730B52DED0A8B81B05048FFF762
:1049000098FF4F4800788DF800004D4880788DF86A
:1049100001004B4800798DF802009DF80220022129
:104920006846FFF7D8FFC5B2CDBB9DF801009DF8E2
:10493000001040EA012400EE104AB8EE400A10EEE2
:10494000100A24F069F841EC1C0B9FED3E0B53EC70
:10495000102B23F079FE41EC1B0B9FED3C0B53EC2D
:10496000102B23F0E9FC41EC1A0B9FED3A0B53ECB2
:10497000102B23F067FF41EC190B9FED380B53EC24
:10498000102B23F061FE41EC180B23F02DFE00EEFE
:10499000100AB8EEC00A334880ED000A05E0FFE7D0
:1049A000012001B0BDEC0A8B30BD254880798DF81F
:1049B00000002348007A8DF801002148807A8DF8A4
:1049C00002009DF8022002216846FFF784FFC5B26D
:1049D00095BB9DF801009DF8001040EA012400EE0F
:1049E000104AB8EE400A10EE100A24F015F841EC17
:1049F0001B0B9FED1D0B53EC102B23F025FE41EC00
:104A00001A0B9FED120B53EC102B23F095FC41EC8D
:104A1000190B9FED120B53EC102B23F015FE41ECFC
:104A2000180B23F0E1FD00EE100AB8EEC00A1048A2
:104A300080ED000A0020B4E7FFE70220B1E70000A4
:104A40009EAB00200000000000E065400000000078
:104A5000E0FFEF4000000000008046400000000042
:104A600000002440780000200000000000005940B1
:104A70007C0000201CB50121082001F09DFF402092
:104A8000009001208DF8040000208DF806008DF8BC
:104A9000070003208DF805006946354801F0EEFC5B
:104AA0001CBD10B50446012C04D14021304801F052
:104AB00061FD04E01CB940212D4801F05DFD10BDF1
:104AC00010B540212B4803F0F4F82B4A2BA12948BC
:104AD00000F0ADFA41F2883003F0B7FE10BD70B5BA
:104AE000002400260025FFF7EBFF2548B0F800045E
:104AF0006FF30E002249A1F800040D4600BF34E018
:104B0000285D16282FD1601C285C05282BD1A01CFD
:104B1000285C012827D100201A490880002608E0D7
:104B2000A019285C17490988084416490880701C98
:104B3000C6B2072EF4DB13480078C0F58070114927
:104B40000880E01D285C098888420CD1201D295C62
:104B5000E01C285C01EB00200B4908800846018816
:104B60000AA015F059FE601CC4B2082CC8DB70BD49
:104B7000000C02400010014080000020257300005E
:104B8000AAAB002084000020860000200D0A2043EC
:104B90004F325F4D6561737572655F646174613A30
:104BA0002564200D0A0000001CB50121102001F031
:104BB00003FF3820009002208DF8050001208DF8B9
:104BC000040000208DF806006946E34801F056FC19
:104BD0001CBD1CB50446012C0FD1102000900220F2
:104BE0008DF8050001208DF8040000208DF80600E6
:104BF0006946D94801F042FC0CE05CB910200090F5
:104C000002208DF8050000208DF804006946D24886
:104C100001F034FC1CBD07E06E2101E04A1ED1B258
:104C20000029FBDC421ED0B20028F5DC70472DE9DC
:104C3000F04105460E462F46B0462021C64801F0F9
:104C400099FC002419E007F0010020B11021C248AE
:104C500001F090FC03E01021BF4801F08DFC7F10B3
:104C60000821BD4801F086FC0220FFF7D4FF08218F
:104C7000B94801F081FC601CC4B2082CE3DB0024BD
:104C80001AE008F0010020B11021B34801F072FCD5
:104C900003E01021B04801F06FFC4FEA68080821DA
:104CA000AD4801F067FC0220FFF7B5FF0821AA48D4
:104CB00001F062FC601CC4B2082CE2DB2021A64893
:104CC00001F05AFCBDE8F0812DE9F0470646374671
:104CD0002021A14801F04EFC002519E007F0010059
:104CE00020B110219C4801F045FC03E010219A48B6
:104CF00001F042FC7F100821974801F03BFC0220A4
:104D0000FFF789FF0821944801F036FC681CC5B202
:104D1000082DE3DB0020FFF75CFF002517E064109F
:104D200010218D4801F00CFC10B144F0800401E02A
:104D300004F07F040821884801F01CFC0220FFF7E2
:104D40006AFF0821844801F017FC681CC5B2082DD1
:104D5000E5DB2021804801F00FFC0120FFF739FF3F
:104D60002046E11704EB1171C1F30718E11704EBBA
:104D700011710911A4EB011101F0FF0908EB880082
:104D800009EB400000F0FF0A5046BDE8F08770B51F
:104D9000044600218E20FFF74AFF60790A2190FB2C
:104DA000F1F201FB12010A2290FBF2F001EB00107C
:104DB000C5B229468020FFF73AFF20790A2190FBEF
:104DC000F1F201FB12010A2290FBF2F001EB00105C
:104DD000C5B229468220FFF72AFFE0780A2190FB1E
:104DE000F1F201FB12010A2290FBF2F001EB00103C
:104DF000C5B229468420FFF71AFFA0780A2190FB4C
:104E0000F1F201FB12010A2290FBF2F001EB00101B
:104E1000C5B229468620FFF70AFF60780A2190FB79
:104E2000F1F201FB12010A2290FBF2F001EB0010FB
:104E3000C5B229468820FFF7FAFE20780A2190FBA8
:104E4000F1F201FB12010A2290FBF2F001EB0010DB
:104E5000C5B229468C20FFF7EAFE80218E20FFF79D
:104E6000E6FE70BD10B58120FFF72EFF044600213D
:104E70008E20FFF7DCFE44F0800421468020FFF7FF
:104E8000D6FE10BD10B58120FFF71EFF044600219D
:104E90008E20FFF7CCFE00BF21468020FFF7C7FE23
:104EA00010BD10B50446FFF77FFE0220FFF7B3FEEA
:104EB0002021294801F060FB0821274801F05CFB14
:104EC00000218E20FFF7B3FE8120FFF7FDFE00F0EA
:104ED000800010B12046FFF75AFF10BD10B58D209D
:104EE000FFF7F2FE1D4908708920FFF7EDFE1B4910
:104EF00048708720FFF7E8FE184988708520FFF783
:104F0000E3FE1649C8708320FFF7DEFE13490871DF
:104F10008120FFF7D9FE114948710846017810A099
:104F200015F07AFC0D48417811A015F075FC0B487E
:104F3000817813A015F070FC0848C17813A015F013
:104F40006BFC0648017915A015F066FC0348417911
:104F500016A015F061FC10BD00100240A200002058
:104F60000D0A20796561723A2564200D0A2000003F
:104F7000206D6F6E74683A2564200D0A20000000D1
:104F8000206461793A2564200D0A200020686F753D
:104F9000723A2564200D0A2000000000206D696E21
:104FA0007574653A2564200D0A200000207365633E
:104FB0006F6E643A2564200D0A0D0A20000000007F
:104FC00010B50446204603F00DFD10BDF0B50346B4
:104FD0000D461646002729460A2E03D000200870E9
:104FE0002846F0BD33B9302001F8010B00200870CD
:104FF0002846F6E7002B03DA2D2001F8010B5B426F
:1050000042F210720DE093FBF2F404B937B104F1EF
:10501000300001F8010B04FB123301270A2092FB38
:10502000F0F2002AEFDC002008702846D9E70FB420
:1050300070B586B006460CA8019073E00B98007816
:105040005C281CD10B98401C0B9000786E2809D06E
:1050500072280FD10D21304602F06EFD0B98401CD6
:105060000B900BE00A21304602F066FD0B98401CC5
:105070000B9003E00B98401C0B9000BF4BE00B988B
:105080000078252840D10B98401C0B9000786428AC
:1050900018D0732833D1019810C801900BE0217803
:1050A000304602F049FD00BF8021304602F0F4FD99
:1050B0000028F9D0641C20780028F0D10B98401CFF
:1050C0000B9020E0019820C801900A2202A92846EE
:1050D000FFF77CFF02AC0BE02178304602F02CFD9C
:1050E00000BF8021304602F0D7FD0028F9D0641CB3
:1050F00020780028F0D10B98401C0B9003E00B980F
:10510000401C0B9000BF06E00B9810F8011B0B90A1
:10511000304602F011FD00BF8021304602F0BCFD98
:105120000028F9D00B980078002887D106B070BC11
:105130005DF814FBFEB506460C4615461F46F948B9
:105140000088C10BC903F74801803246F6A1F84830
:10515000FFF76DFF14B90DB90120FEBD02A80821AB
:105160003B460022CDE900101146104611F0A9FA85
:1051700002A808214FF47A730022CDE900101146ED
:10518000104611F09EFA0021E6480088C0F30E0098
:10519000E84A11541146E8A015F03EFBB4B1ADB198
:1051A0002146E44815F008FE08B1012000E0002087
:1051B00040B92946DF4815F0FFFD08B1012000E0A5
:1051C000002008B10120C8E70020C6E744B121460D
:1051D000D84815F0F1FD08B10120BEE70020BCE77A
:1051E0002946D44815F0E8FD08B10120B5E70020B4
:1051F000B3E73EB5002402A808214FF47A730022D9
:10520000CDE900101146104611F05BFA0DE04FF4A5
:10521000FA730022C9A1CAA0FFF78CFF18B1CBA076
:1052200015F0FAFA3EBD601CC4B20A2CEFDB00BFD9
:10523000F8E710B5044624B1012C0AD0022C18D18D
:105240000FE040F6C413C3A2BCA1C5A0FFF772FFD4
:1052500010BD40F6C413BFA2B8A1C4A0FFF76AFFF7
:10526000F6E740F6C413BBA2B4A1C3A0FFF762FFE8
:10527000EEE70020ECE730B59FB004460D462B4624
:105280002246C0A101A815F0D3FA41F288330022CA
:10529000AAA101A8FFF74EFF1FB030BD10B586B020
:1052A00004460CB1012000E000200246BAA101A88A
:1052B00015F0BEFA4FF4FA730022A0A101A8FFF77F
:1052C00039FF06B010BDF0B5B9B006460F4614461A
:1052D0001D46642120A815F0BDFE16B1012E10D187
:1052E00007E03B46B0A2B1A120A8009415F0A0FAB7
:1052F00008E03B46B1A2ADA120A8009415F098FAB1
:1053000000E000BF00BF052D06DA20AB2A46ACA1A5
:1053100002A815F08DFA04E020AAAEA102A815F0AB
:1053200087FA4FF47A63AFA284A102A8FFF702FFC5
:1053300039B0F0BD10B54FF4FA7300227FA1ADA0D3
:10534000FFF7F8FE08B9002010BD4FF4FA73ADA2C4
:105350007AA1ADA0FFF7EEFEF6E72DE9F04186B0A9
:1053600007460C4615461E464FF000083FB1224640
:1053700071A16F48FFF75BFE4FF001081CE0052E9E
:1053800006DAAB1C3246A3A101A815F051FA04E0DD
:10539000AA1CA5A101A815F04BFA4FF47A730022BC
:1053A000A5A101A8FFF7C6FE4FF47A730022A3A1BE
:1053B0002046FFF7BFFE8046404606B0BDE8F081BC
:1053C0000EB502A808214FF47A730022CDE900102F
:1053D0001146104611F075F99AA15548FFF727FEBE
:1053E00002A808214FF4FA730022CDE900101146FB
:1053F000104611F066F90EBD10B54FF4FA73002295
:105400004EA191A0FFF796FEA0B193A1494815F0D7
:10541000D3FC08B1022010BD92A1464815F0CCFC87
:1054200008B10320F7E792A1424815F0C5FC08B186
:105430000420F0E70020EEE7FEB505460F46002405
:1054400040F6B83003F001FA7EA23BA13848FFF7DE
:10545000EEFD41F2883003F0F8F988A015F0DCF990
:10546000FFF7C7FE40F6B83003F0EFF940F6B8306A
:1054700003F0EBF92B480088C10BC90329480180D0
:105480000020FFF7D6FE40F6B83003F0DEF94FF407
:10549000FA73002229A17BA0FFF74CFE25497CA0CE
:1054A00015F0BAF92A4620A12148FFF7C0FD41F2C4
:1054B000883003F0CAF91F4975A015F0ADF941F223
:1054C000883003F0C2F941F2883003F0BEF90021C0
:1054D00014480088C0F30E00164A115410466E4955
:1054E000086014E16C4909686C4A126888186CA15C
:1054F00015F062FC6C49086004F60C016B4800680A
:105500001CF012FA06466A49304616F0EAFA601CA8
:10551000C4B2092C00DD00246348006800B9F7E03C
:10552000C8E00000ACCF002025730D0A0000000089
:1055300000440040ACAF0020257300004F4B00003A
:1055400041542B524553544F524500004F4B0D0AC6
:10555000000000006E6F206368616E6765000000E8
:1055600041542B43574D4F44453D310041542B434B
:10557000574D4F44453D320041542B43574D4F4406
:10558000453D330041542B43574A41503D2225733A
:10559000222C22257322000041542B4349504D55A3
:1055A000583D25640000000054435000222573221A
:1055B0002C222573222C2573000000005544500036
:1055C00041542B43495053544152543D25642C259A
:1055D0007300000041542B43495053544152543DF1
:1055E00025730000414C5245415920434F4E4E45D2
:1055F0004354000041542B4349504D4F44453D31E5
:10560000000000003E00000041542B434950534528
:105610004E44000041542B43495053454E443D25D0
:10562000642C25640000000041542B43495053452D
:105630004E443D25640000003E20000053454E448A
:10564000204F4B002B2B2B0041542B4349505354DC
:1056500041545553000000005354415455533A32BD
:105660000D0A00005354415455533A330D0A0000BB
:105670005354415455533A340D0A00000D0A0D0A93
:105680000000000041542B435753544154453F0000
:105690000D0A25730D0A0000C0000020BC00002088
:1056A0002B43574C41500000B8000020C805002093
:1056B0002ED3002085488649864A874BCDE90021B4
:1056C0000290864A86A18F48006815F041FA7F480B
:1056D00000687F49CDE900107E487F4A03687F4813
:1056E000016889A015F098F896A015F095F804E0E7
:1056F0009C480068401C9B4908608248006801780B
:1057000080480068401C7F4A10600A29F0D1E9E611
:1057100000BF0020FEBD2DE93041C8B005468846D7
:10572000002491480088C10BC9038F4801802A4694
:10573000AFF2A4018D48FFF77AFC4FF47A7003F0C2
:1057400084F847A808214FF47A730022CDE90010AD
:105750001146104610F0B5FF002183480088C0F3C1
:105760000E00834A11541146AFF2DC0015F054F8D4
:105770007F4908197FA115F01FFB44A845A946AA37
:105780003B46CDE90021029032467EA178480D309B
:1057900015F0DEF917E030788DF8100038788DF8C4
:1057A00011004698C0B28DF812004598C0B28DF82D
:1057B00013004498C0B28DF8140004A8015D78A0CD
:1057C00015F02AF8641C6A4801780078401CC0B2C1
:1057D000674A10700A29DED148B0BDE8308170B543
:1057E000A0B004460D4616462B4622466EA102A8DE
:1057F000009615F01DF84FF4FA730022AFF2C421A1
:1058000002A8FFF797FC20B070BD30B59FB00446EA
:105810000D462B4622466FA101A815F009F84FF45A
:10582000FA730022AFF2EC2101A8FFF783FC1FB04E
:1058300030BD10B59EB0044622466CA1684614F0F7
:10584000F7FF4FF4FA730022AFF210316846FFF70A
:1058500071FC1EB010BD30B59FB004460D462B46FE
:10586000224667A101A814F0E3FF4FF47A730022E7
:10587000AFF2383101A8FFF75DFC1FB030BD00B5B5
:105880009FB066A101A814F0D3FF4FF4FA73002271
:10589000AFF2583101A8FFF74DFC1FB000BDFEB5B7
:1058A00004460D46002629462046FFF7D4FF02A8ED
:1058B00008214FF47A730022CDE9001011461046FA
:1058C00010F0FFFE01263046FEBD0000B4000020AF
:1058D0006ED30020B00000202ED30020AC000020AA
:1058E0002B43574C41503A2825642C22255B5E22DD
:1058F0005D222C25642C22255B5E225D222C2564F2
:1059000000000000B80000202065636E203D2025C7
:10591000640D0A2073736964203D25730D0A20729B
:10592000737369203D25640D0A206D6163203D2558
:10593000730D0A206368616E6E656C203D202564DE
:105940000D0A00003D3D3D3D3D3D3D3D3D3D3D3D64
:105950003D3D3D3D3D3D3D3D3D3D3D3D3D3D3D0DA7
:105960000A000000BC000020ACCF00200044004032
:10597000ACAF00202B434950534E545054494D4531
:105980003A0000002822255B5E225D222022255B52
:105990005E225D222025642025642025640000000D
:1059A0000D0A25630D0A000041542B4D51545455E6
:1059B0005345524346473D302C312C222573222C2F
:1059C000222573222C222573222C302C302C2222CB
:1059D0000000000041542B4D515454434F4E4E3D56
:1059E000302C222573222C25642C300041542B4D61
:1059F0005154545355423D302C222573222C3100F2
:105A000041542B4D5154545055423D302C22257356
:105A1000222C222573222C312C30000041542B4D96
:105A2000515454434C45414E3D3000001CB50121BA
:105A3000022000F0C1FF4FF44070009001208DF86B
:105A4000040000208DF8060003208DF805000120D9
:105A50008DF807006946894800F010FD012088494B
:105A600008608849C1F8A4021CBD10B583480068CD
:105A700020F44020814908600846006840F48020F6
:105A8000086001207E49091D08607E49C1F8A00216
:105A9000042002F0B0FE00207949091D08600420AE
:105AA00002F0A9FE00207749C1F8A00210BD10B590
:105AB0007248006820F44020704908600846006879
:105AC00040F48020086000206D4908606D49C1F8ED
:105AD000A402042002F08FFE012069490860694990
